:100000000C94C3030C94E0030C94E0030C94E00301
:100010000C94E0030C94E0030C94E0030C94E003D4
:100020000C94E0030C94E0030C947B310C944D325F
:100030000C94B3270C94E0030C94E0030C94E003BD
:100040000C94E0030C94E0030C94E0030C94E003A4
:100050000C94E0030C941B280C94E0030C94E00334
:100060000C94E0030C94E0030C94E0030C94E00384
:100070000C94E0030C94E0030C94E0030C94E00374
:100080000C94E0030C94E0030C94E0030C94E00364
:100090000C94E0030C94E0030C94E0030C94E00354
:1000A0000C94E0030C94E0030C94E00338043B044C
:1000B0003E044104440446044904B306B806C2069B
:1000C000B606BB06C006BE060F0811081C081308BA
:1000D0001508170819081B081E08200822082D08F3
:1000E0002408260828082A082C082F0808150B15AC
:1000F0000E151115141517151A151D152015231594
:100100002615131D131D451D451D7C1D9C1D051F1A
:10011000631FDE1D631F8B1E8B1EFC1E631F631F70
:100120005D1F981E981E981E981E981E981E981E59
:10013000981E981E981E981E981E981E981E981E0F
:10014000981EA91EB61EBD1EC41ECE1EEE1FEE1F9B
:1001500000200020F71F002000200020EE1FEE1FCF
:10016000FC1F00200020FC1FBA32E132D333E13201
:10017000D3332D335033D333A633B53305A84CCD09
:10018000B2D44EB93836A9020C50B9918688083CD1
:10019000A6AAAA2ABE000000803F6572676F646F3E
:1001A000785F657A2F62316262383035306331654D
:1001B000343839626338313338204020302E362EBF
:1001C0003133382D392D673330326537322D64693C
:1001D000727479000000F0A12E0056002A0002552A
:1001E000354100001E00140004001D6134004D0064
:1001F0001F001A0016001B00E3002B00200008005F
:100200000700060050002C0021001500090019000D
:100210004F004A00220017000A0005000000006499
:10022000500001000000E3000000E3004F00015314
:100230000000E7000000E40023001C000B00110098
:1002400000002961240018000D00100052004B002E
:1002500025000C000E003600510028002600120078
:100260000F0037002F002B00270013003342387196
:1002700030004E004C0031003468E50001510000B0
:100280002900010001000100010000003A001E02E7
:1002900020022202010001003B001F022102230272
:1002A0000100C95C3C002F0226022F000100CA5C3D
:1002B0003D00300227023000010001003E00310203
:1002C000350035020000C35C0100010000000100A0
:1002D0000000010001000100000001000000C25CFC
:1002E0003F005200510024020000DF5C4000240067
:1002F00021001E00010001004100250022001F0016
:100300003700C55C42002600230020002700C65CA1
:1003100043002502010031002E0001004400450089
:1003200001000100010000000100010001000100C6
:1003300001000000010001000100010001000100B6
:1003400001000100F2000100010001000100F000C5
:10035000F1000100F400010001000100F3000100C0
:10036000F500010001000100010001000000010092
:100370000100010000000100000001000100010077
:100380000000010000000100010001000100010067
:10039000000001000100010001000100A9000100AE
:1003A000010001000100AC00AA00B600010001003C
:1003B0000100AB00A80001000100010001000100E4
:1003C0000100010001000100AE0001000100000079
:1003D00000000000000000002A2B280000000000A0
:1003E00000000000000000000000002900000000E4
:1003F0002C1E3420212224342627252E362D373852
:10040000271E1F202122232425263333362E37385A
:100410001F0405060708090A0B0C0D0E0F10111218
:10042000131415161718191A1B1C1D2F3130232DE4
:10043000350405060708090A0B0C0D0E0F101112E2
:10044000131415161718191A1B1C1D2F3130354C93
:10045000000000000000000000000000000000009C
:10046000000000000000000000000000000000008C
:100470000001010101010100010101010000000072
:100480000000000000000000000001000100010168
:10049000010101010101010101010101010101014C
:1004A000010101010101010101010100000001013F
:1004B000000000000000000000000000000000003C
:1004C0000000000000000000000000010101010028
:1004D000000000000001010101010101010102020F
:1004E00002020202020202030303030303030304E2
:1004F00004040404040505050505060606060607AA
:10050000070707080808080909090A0A0A0A0B0B5D
:100510000B0C0C0C0D0D0D0E0E0F0F0F10101111FA
:10052000111212131314141515161617171818197B
:10053000191A1A1B1C1C1D1D1E1F1F2020212222E0
:100540002324252526272728292A2B2B2C2D2E2F1F
:100550002F30313233343536363738393A3B3C3D3B
:100560003E3F4041424344464748494A4B4C4D4F29
:1005700050515253555657585A5B5C5E5F606263E8
:10058000646667696A6C6D6E707173747678797B76
:100590007C7E8081838486888A8B8D8F91929496CD
:1005A000989A9B9D9FA1A3A5A7A9ABADAFB1B3B5E9
:1005B000B7B9BBBDBFC1C4C6C8CACCCFD1D3D6D8CA
:1005C000DADCDFE1E4E6E8EBEDF0F2F5F7FAFCFF68
:1005D00004033000000016034500720067006F003E
:1005E00044006F007800200045005A000000160308
:1005F0004500720067006F0044006F007800200023
:1006000045005A0000000403090409026D000401BA
:1006100000A0FA09040000010301010009211101F1
:1006200000012240000705810308000A09040100B7
:100630000103010200092111010001224D000705FB
:10064000820308000A0904020001030000000921D6
:10065000110100012236000705830308000A09047E
:1006600003000103000000092111010001223900EB
:10067000070584032000011201100100000008EDAD
:10068000FE071301000102030105010906A101058E
:100690000719E029E7150025019508750181020574
:1006A00008190129059505750191029501750391B8
:1006B000010507190029F71500250195F875018135
:1006C00002C005010980A101850216010026030070
:1006D0001A81002A8300751095018100C0050C095C
:1006E00001A1018503160100269C021A01002A9C23
:1006F00002751095018100C005010902A1010901DF
:10070000A1000509190129051500250195057501A7
:1007100081029501750381010501093009311581B7
:10072000257F95027508810609381581257F950179
:1007300075088106050C0A38021581257F9501751B
:10074000088106C0C005010906A101050719E029B5
:10075000E71500250195087501810295017508814D
:100760000105081901290595057501910295017585
:100770000391010507190029FF150026FF009506C2
:1007800075088100C00011241FBECFEFDAE0DEBF84
:10079000CDBF13E0A0E0B1E0E6ECFFE602C00590BB
:1007A0000D92A836B107D9F726E0A8E6B3E001C05C
:1007B0001D92A837B207E1F70E94A22E0C94E137F0
:1007C0000C94000080B38C7080BB81B3836F81BBBD
:1007D000089584B1807F84B985B1807F85B98AB15D
:1007E000837F8AB98BB1837F8BB93E9846980895F1
:1007F000CF93E82F873090F5809104019091050107
:10080000892B09F048C0CE2F64E670E080E40E9496
:10081000B5189093050180930401892BD1F464E607
:1008200070E082E10E940C1990930501809304010D
:10083000892B79F481E090E001C0880FCA95EAF72E
:1008400064E670E080950E940C19909305018093F6
:10085000040184E690E0CF910C94611990E0FC01D2
:100860003797E730F105B8F4EA5AFF4F0C94D436C5
:10087000209A289810C0219A29980DC0229A2A9867
:100880000AC0239A2B9807C0529A01C0539A5B98CA
:1008900002C03E9A4698CF910895CF93873008F0D2
:1008A00041C08091040190910501892B09F043C05A
:1008B00064E670E080E40E94B5189093050180938F
:1008C0000401892B11F0C0E027C064E670E083E1E9
:1008D0000E940C199093050180930401892B99F7CC
:1008E00064E670E081E40E94B5189093050180935E
:1008F0000401892B41F784E690E00E943C1997FFA0
:1009000005C09093050180930401DDCFC82FC095E9
:10091000109205011092040184E690E00E94611992
:100920008C2F0AC09FB18FB1807F8695869593707A
:10093000892B809501C080E0CF9108950895089596
:100940000C949F040E94F70590E09093050180931A
:1009500004010E94E9030E94E20329E633E0EDEB83
:10096000F3E04EE04E0F119280E090E0D901A80F25
:10097000B91F1C92019686309105C1F72A5F3F4F3F
:100980004E13F1CF0C942B070E94F70590E0909343
:100990000501809304010E94E9030E94E203EDEB4C
:1009A000F3E08EE08E0F11928E13FDCF089526E0B6
:1009B000829FC0011124FC01E759FC4F20E030E088
:1009C00080E041E050E09081992319F091509083AC
:1009D00007C0BA01022E01C0660F0A94EAF7862BFF
:1009E0002F5F3F4F31962630310569F7089596E025
:1009F000699FB001112420E030E090E04FE0FC015D
:100A0000022E02C0F595E7950A94E2F7E0FF06C0D2
:100A1000F901E60FF71FE759FC4F40832F5F3F4F67
:100A20002630310561F70895CF92DF92EF92FF9261
:100A30000F931F93CF93DF93809104019091050151
:100A4000892B91F0809168038F5F809368038111F7
:100A50000BC00E94F70590E090930501809304017C
:100A6000892B11F40E9489058DEBC82E83E0D82EC6
:100A700094ECE92E93E0F92EC0E08C2F0E94F8034D
:100A800007E00C0F802F0E94F8038C2F0E94D704E0
:100A9000182F8C2F0E944D04F6019081D12FD095F4
:100AA000D9238123D82B6C2F8D2F89270E94F704FF
:100AB000F601D1936F01802F0E94D704182F802F49
:100AC0000E944D04F7019081D12FD095D923812325
:100AD000D82B602F8D2F89270E94F704F701D1931F
:100AE0007F010E94E903CF5FC73039F60E943907C2
:100AF00081E0DF91CF911F910F91FF90EF90DF90F8
:100B0000CF900895E82FF0E0E354FC4F80810895E2
:100B1000089556985E9825982D9826982E9827988F
:100B20002F988FEF90E090938900809388009093A6
:100B30008B0080938A0090938D0080938C00259A7F
:100B40002D9A2FEF80E792E0215080409040E1F70E
:100B500000C00000269A2E9A2FEF80E792E02150E5
:100B600080409040E1F700C00000279A2F9A2FEFB5
:100B700080E792E0215080409040E1F700C0000003
:100B800025982D982FEF80E792E0215080409040EB
:100B9000E1F700C0000026982E982FEF80E792E042
:100BA000215080409040E1F700C0000027982F9826
:100BB00056985E9825982D9826982E9827982F98C5
:100BC000089589EA8093800089E0809381002498C9
:100BD0002C983F988AB18F7C8AB96E98479A8BB1CE
:100BE00080638BB9769A0E9489050C949E0480E2FA
:100BF00090E090930501809304018091CB038111D3
:100C00000EC00E94AF1881E08093CB032FEF83EDDD
:100C100090E3215080409040E1F700C0000064E67E
:100C200070E080E40E94B518909305018093040160
:100C3000892B09F050C064E670E080E00E940C1936
:100C40009093050180930401892B09F044C064E668
:100C500070E080E00E940C199093050180930401DC
:100C6000892BC9F564E670E08FE30E940C1990931C
:100C7000050180930401892B71F584E690E00E94C0
:100C8000611964E670E080E40E94B5189093050154
:100C900080930401892BF9F464E670E08CE00E94F3
:100CA0000C199093050180930401892BA1F464E64B
:100CB00070E080E00E940C1990930501809304017C
:100CC000892B49F464E670E08FE30E940C1990933D
:100CD00005018093040184E690E00E9461198091EF
:100CE00004010895611108C0FC018281882321F06C
:100CF0008AE991E00E94280780E090E008958E3D07
:100D00002CE5920721F08F3D9C4541F010C0FB017E
:100D10008281882369F00E94E42607C0FB0182815A
:100D2000882331F081E00E94841680E0089581E0FC
:100D30000895CF92DF92EF92FF926B017C010E94A7
:100D40001C2656985E9825982D9826982E982798B8
:100D50002F9890E0FC013197E730F105A8F4E35AB1
:100D6000FF4F0C94D436259A2D9A0EC0259A2D9AB1
:100D7000269A2E9A09C0259A2D9A04C0259A2D9A52
:100D8000269A2E9A279A2F9AC701B601FF90EF90C4
:100D9000DF90CF90089581E008950C947F06CF9363
:100DA000282F30E0F901E053FC4FC491F901E05BDA
:100DB000FB4F2491222359F081EE0E94501B8C2F6F
:100DC0000E94501B8C2F0E94691C81EE04C08C2F46
:100DD0000E94501B8C2FCF910C94691C0F931F9372
:100DE000CF93DF93EC01062FFE018491882359F104
:100DF0009E012F5F3F4F813041F4E901F9011491C9
:100E0000812F0E94501B812F0DC0823031F4E901E7
:100E1000F90184910E94501B0AC0833031F4E9012A
:100E2000F90184910E94691C02C00E94CF0621969C
:100E3000802F8823C9F2EFE9FFE03197F1F700C076
:100E400000008150F6CFDF91CF911F910F9108954F
:100E500060E00C94EE060E946C26811106C00E9490
:100E60007726811102C00E94E4260E942A150C9464
:100E7000E1050E948E148091CC03811102C00E9472
:100E8000550E8091CC0390E001966BE070E00E94DB
:100E9000C0368093CC030C94A004282F2F7041F00F
:100EA000822F90E02A3010F44D9608950697089509
:100EB00087E290E0089508950C945B070C945C071A
:100EC00008950E94DC1F0E9460072FEF84E39CE0DE
:100ED000215080409040E1F700C000000C94412870
:100EE000FF920F931F93CF93DF938C01FC01C0817E
:100EF000D18180912904811113C08281882349F016
:100F0000CE010E940F25F82E682FCE010E94B22438
:100F100004C0CE010E94E224F82EBE018F2D04C031
:100F2000CE010E940F25BE010E94230AEC01B801E8
:100F30000E94CD06882309F47EC2B801CE010E942A
:100F40008C0C882309F477C2CB3CFCE5DF0741F425
:100F5000F8018281882309F46EC20E9456166BC282
:100F6000CC3C8CE5D80708F013C1C33C9CE5D907FD
:100F700061F4F8018281882309F45DC20E94E025B2
:100F80008272F1F00E94801556C2C43CECE5DE0787
:100F9000D0F0F8018281C73CFCE5DF0709F4CDC041
:100FA00008F0DDC0C53CECE5DE0709F4CCC008F074
:100FB000D0C0882309F43FC20E94E025827211F359
:100FC0000E94661538C2C531FCE5DF0708F07EC017
:100FD000C2308CE5D80708F452C0F801828188231A
:100FE00009F459C00E946C26811102C00E94E426B7
:100FF0000E94892690E090936A0680936906FE011C
:10100000E350FC45E231F10530F4EC59FF4F80919B
:1010100069060C94D43680916906816027C082608D
:1010200025C0846023C0806121C080621FC08064AD
:101030001DC080681BC08460886018C08E7F16C089
:101040008D7F14C08B7F12C08F7E10C08F7D0EC02D
:101050008F7B0CC08F770AC08B7F877F07C087FB91
:10106000222720F991E0922790FB87F98093690667
:10107000809169060E948D260E94DC1FDCC1C1158B
:101080009CE5D90781F0C130DC45A9F081E080936F
:10109000D2038093D303C801DF91CF911F910F91A9
:1010A000FF900C94CB06F8018281882309F4C3C118
:1010B0000E946107C0C1F8018281882309F4BBC185
:1010C0008091C80481608093C804B5C1C631FCE535
:1010D000DF0739F50E94E025282FF8018281409131
:1010E000080150910901882379F02A7A91E009F4E6
:1010F00090E09093CD03911102C069E201C065E3D5
:10110000CA010E9442270AC08091CD03811102C00A
:1011100069E201C065E3CA010E944D270E94AD2526
:101120008AC1C23CDC4509F0B1CFF8018281882335
:1011300009F481C10E9458157EC1882309F47BC13E
:101140000E94F61578C1882309F475C10E949A158A
:1011500072C1882309F46FC10E94C6156CC1C93CD5
:101160009CE5D90731F4882309F465C10E9426164D
:1011700062C1CA3CDC4530F4882309F45CC10E949A
:101180000C1659C1882309F456C10E943C1653C15C
:10119000C33DFCE5DF0749F4F8018281882309F4A7
:1011A0004AC188E10E94841646C1C43D8CE5D80737
:1011B00008F087C0F8018281CF3CFCE5DF07A1F48D
:1011C000882309F438C10E949316663071058105A1
:1011D000910540F00E9493166830710581059105D4
:1011E00008F4EECE86E0DECFC03D9CE5D90730F5B1
:1011F000CD3CECE5DE0729F4882309F41CC181E02D
:10120000D1CFCE3CDC4530F4882309F414C10E94D0
:101210006B1611C1882309F40EC10E949316623027
:1012200071058105910540F00E94931665307105A6
:101230008105910508F4C4CE82E0B4CFC13D9CE5A0
:10124000D907A1F4882309F4F6C00E9493166F30E1
:1012500071058105910540F00E9493166431710576
:101260008105910508F4ACCE8FE09CCFC23DDC45F2
:10127000A0F4882309F4DFC00E9493166930710539
:101280008105910540F00E9493166E30710581052D
:10129000910508F495CE89E085CF882309F4CBC069
:1012A0000E949316653171058105910540F00E94F9
:1012B0009316673171058105910508F481CE85E1AA
:1012C00071CFC73DFCE5DF0781F5F80182818823F6
:1012D00061F01092D3030E94E5279093D10380938D
:1012E000D00380E20E94D11CA6C00E94E02581FFAD
:1012F00005C081E08093D2038093D3038091D30310
:1013000081110FC08091D0039091D1030E94F127E9
:10131000883C910530F487E20E94501B87E20E94CE
:10132000691C80E20E94D81C86C0C83D8CE5D807A5
:1013300008F04CC0F8018281C53DFCE5DF0729F4C7
:10134000882309F478C083E22DCFC63DDC45A0F4A4
:10135000882309F470C00E949316693171058105D4
:10136000910540F00E949316623271058105910546
:1013700008F426CE89E116CF882351F01092D203CB
:101380000E94E5279093CF038093CE0382E0AACFFB
:101390000E94E02585FF05C081E08093D203809301
:1013A000D3038091D20381110FC08091CE0390911D
:1013B000CF030E94F127883C910530F486E20E9419
:1013C000501B86E20E94691C82E0ACCFCB3DECE56D
:1013D000DE0731F4F8018281882369F180E009C0D9
:1013E000CC3DFCE5DF0741F4F8018281882319F147
:1013F00082E00E943E2F1FC0C83DDC4509F046CE6A
:10140000F8018281811165CF8091D303811189CF49
:101410008091D0039091D1030E94F127883C9105DF
:1014200008F07FCF80E20E94D81C88E20E94501B07
:1014300088E20E94691C80E0DF91CF911F910F919B
:10144000FF900895089596E0799FF001112494E5A6
:10145000899FE00DF11D1124E60FF11DEE0FFF1F16
:10146000E852FE4F859194910895880F991FFC01D1
:10147000EC52FE4F859194910895CF93DF930E9493
:10148000230A0E94EC0BEC01811520E59207F0F590
:10149000811530E4930708F021C1883E910500F5DD
:1014A000803E910508F094C1883A910570F4853A20
:1014B000910508F0A3C08130910509F489C108F4B1
:1014C00040C1049708F084C13CC18D3B910508F4EC
:1014D000A0C0803C910508F434C1805C9109F0C043
:1014E0008115904258F4C11581E0D80708F070C109
:1014F000C03FD10508F425C1D0656AC1C11590E38C
:10150000D90708F0E1C0CE019F70DAC0811525E54A
:10151000920708F043C0811534E5930708F0F5C041
:10152000811542E5940708F5C11581E5D80708F053
:10153000D8C02C2F237081E090E002C0880F991F43
:101540002A95E2F79C689E0174E0369527957A9576
:10155000E1F72370922BCF70C695C69540E2C49FE9
:10156000E0011124C82BD92B33C1869586959E01A5
:1015700023703327C115D34508F0B8C040E2849FDB
:10158000C0011124C1E0D0E002C0CC0FDD1F2A95BC
:10159000E2F78C2B9D2BEC01DC681AC181152AE542
:1015A000920798F4811539E5930708F0B9C08115C1
:1015B000964508F4AFC0C11588E5D80708F4C1C046
:1015C000DC2FCC27C06FD06A03C1C1159BE5D907BA
:1015D00008F4B7C0C1152CE5D20708F4AFC0CE019E
:1015E00090568115904208F0ACC08D2F8F710E94EB
:1015F000690CDD27D0628F71D82BEAC0853A91053E
:1016000009F4A2C0863A910509F0A1C0C2E8D0E46D
:10161000DFC0883A910509F49DC0893A910509F423
:101620009CC08A3A910509F49BC08B3A910509F454
:101630009AC08C3A910509F499C08B3B910509F445
:1016400098C08C3B910509F497C08D3A910509F437
:1016500096C0803B910509F495C08E3A910509F436
:1016600094C08F3A910509F493C0813B910509F428
:1016700092C0823B910509F491C0833B910509F426
:1016800090C0843B910509F48FC0853B910509F416
:101690008EC0863B910509F48DC0873B910509F406
:1016A0008CC0883B910509F48BC0893B910509F4F6
:1016B0008AC08A3B910509F489C0C0E0D4E488C09F
:1016C0000E94350AEC0184C0CE019927D3FF03C0E4
:1016D000EC01D86C7DC0EC01D06C7AC0DF70D06AB0
:1016E00077C0DC2FCC27C16FD06A72C040E2849FE4
:1016F000C0011124C1E0D0E002C0CC0FDD1F2A954B
:10170000E2F7C82BD92BDA6863C0D82FCC27C46F77
:10171000D06A5EC0CF71DD27DC2FCC27D06258C0E5
:101720008F70806E90E0906A24E0D695C7952A95D8
:10173000E1F7CF709C013C2BE9014AC0DD27D06660
:1017400047C0C0E0D0E044C0C1E8D0E441C0C3E835
:10175000D0E43EC0C2EED4E43BC0C9EED4E438C00D
:10176000CAEED4E435C0C5EBD4E432C0C6EBD4E451
:101770002FC0C3EBD4E42CC0C4EBD4E429C0C7EB26
:10178000D4E426C0CCECD4E423C0CDECD4E420C017
:10179000C3E8D5E41DC0CAE8D5E41AC0C2E9D5E45F
:1017A00017C0C4E9D5E414C0C1E2D6E411C0C3E255
:1017B000D6E40EC0C4E2D6E40BC0C5E2D6E408C04D
:1017C000C6E2D6E405C0C7E2D6E402C0CAE2D6E467
:1017D000CE01DF91CF9108958238910549F1B0F49F
:1017E0008133910509F458C048F48932910509F410
:1017F0004EC08A32910509F454C00895853391058D
:1018000009F440C08933910599F00895833E91050C
:1018100029F138F4803E910591F0823E9105A1F0C6
:101820000895863E9105F9F0873E910531F10895BE
:101830002091690620FD3AC021FD38C008958091AD
:10184000690680FD35C032C08091690682FF32C0D2
:101850008091690684FD30C083EE39C080916906AD
:1018600082FD28C0F5CF8091690683FF27C0809153
:10187000690684FD21C087EE2AC08091690683FD38
:101880001DC0F5CF8091690685FD1AC01BC08091EF
:10189000690685FD17C014C08091690686FD14C0D5
:1018A00015C08091690686FD11C00EC080EE0FC084
:1018B00089E30DC082EE0BC080E009C086EE07C050
:1018C00089E205C085E303C08AE201C081E390E0BC
:1018D00008959091690692FF0DC0282F2871283035
:1018E00019F4877F846006C0282F2471243011F4F6
:1018F0008B7F886093FF0DC0282F2871283119F441
:10190000877E846106C0282F2471243111F48B7ED8
:10191000886194FD877E0895CF93DF93813020E81E
:101920009207D0F0FB0122812223B1F0EC018091DB
:10193000D403811109C08CE090E00E9436370E94E8
:10194000B00C81E08093D4030E94B70CCE019F7746
:101950000E947F0D0E94330D81E0DF91CF910895A9
:101960008093D503682F8CE090E00C944A37E09187
:101970000801F091090180818093F90481FF03C07F
:1019800081EE0E94691C8091F90485FF03C085EEF9
:101990000E94691C8091F90480FF03C080EE0E94C0
:1019A000691C8091F90484FF03C084EE0E94691CC5
:1019B0008091F90482FF03C082EE0E94691C80912D
:1019C000F90486FF03C086EE0E94691C8091F90429
:1019D00083FF03C083EE0E94691C8091F90487FF96
:1019E00003C087EE0E94691C8091D503823001F10B
:1019F000A8F48823C9F0813079F580EE0E94501B4D
:101A000081EE0E94501B88E10E94501B88E10E94D9
:101A1000691C81EE0E94691C80EE1CC0843081F03C
:101A20008530D1F486EE01C082EE0E94501B14C0B6
:101A300082EE0E94501B87E50E94501B87E50AC07A
:101A400086EE0E94501B86EE0E94691C88E10E946F
:101A5000501B88E10E94691C8FE39CE90197F1F714
:101A600000C0000008958091D503813049F030F026
:101A7000823021F0853051F486EE06C082EE04C03B
:101A80008CE20E94501B8CE20E94691C8091F90438
:101A900081FF03C081EE0E94501B8091F90485FFF5
:101AA00003C085EE0E94501B8091F90480FF03C0A3
:101AB00080EE0E94501B8091F90484FF03C084EEE5
:101AC0000E94501B8091F90482FF03C082EE0E94A5
:101AD000501B8091F90486FF03C086EE0E94501BC4
:101AE0008091F90483FF03C083EE0E94501B809114
:101AF000F90487FF03C087EE0C94501B0895EF9202
:101B0000FF921F93CF93DF937C01CCE0D0E097014D
:101B10000C2E02C0369527950A94E2F7122F1F70FB
:101B2000812F0E944D070E94501B812F0E944D075C
:101B30000E94691C2497CC3F8FEFD80741F7DF91B3
:101B4000CF911F91FF90EF900895CF92DF92EF9287
:101B5000FF920F931F93CF93DF93E82FF82F71110C
:101B600003C0682F782F7EC0062F10E0C72FD0E06B
:101B7000E82EF12CC8016BE270E00E94AC369B01AC
:101B800045ED4203B001439F700D1124060F171F4E
:101B900086E0809FB001819F700D11244FEF50E0CF
:101BA000CA018C1B9D0B8E9DD0018F9DB00D9E9DFB
:101BB000B00D11248B2F6C9F80016D9F100D7C9FA9
:101BC000100D1124012F11276A01C01AD10ACE9CD1
:101BD0008001CF9C100DDE9C100D11246A01C61AE5
:101BE000D70ACC9EB001CD9E700DDC9E700D1124E5
:101BF000672F7727461B570B4E9DE0014F9DD00D59
:101C00005E9DD00D11247D2F2230310599F04CF4CA
:101C100021153105C9F021303105A1F47E2FE12FC6
:101C200013C02330310551F02430310559F4ED2F24
:101C30007B2F06C0EB2F8D2F7F2F06C0712FEB2F30
:101C40008F2F02C07B2F812FF0E0E053FB4F649178
:101C5000E72FF0E0E053FB4F7491E82FF0E0E05302
:101C6000FB4F8491DF91CF911F910F91FF90EF90E7
:101C7000DF90CF90089588E090E00C943E37AB0160
:101C8000BC0188E090E00C945C37EAEFF4E08DE072
:101C900080831092FB048FEF8283838314826081A0
:101CA0007181828193810C943F0EE0914803F09101
:101CB00049030994E0914403F09145030994E091AC
:101CC0004603F0914703099440E060E080E00C9403
:101CD0005F0EEAEFF4E06081862F881F8827881F57
:101CE0006091FB04660F682B728183810E94A50DB1
:101CF000962F672F482F892F0C945F0EDF92EF925B
:101D0000FF920F931F93CF93DF938091FA04881F64
:101D10008827881F9091FB04492F440F242F282BDC
:101D200097FB332730F9C9018C549F4F68E671E067
:101D30000E94C036821B930B8038910514F09A954F
:101D400005C081384FEF94070CF4939597FD0396E7
:101D50009595879595958795C82F8091FC04281BAC
:101D6000310937FF02C02D5F3F4F359527953595D7
:101D70002795D22FD090FD049CE1E92E91E0F92E19
:101D800000E010E0F701208122952F706091FA04A5
:101D9000962F991F9927991F6091FB04660F692B55
:101DA0002C9F600D11247091FC042D9F700D112447
:101DB0008D2D0E94A50D472F282FC8010E945A0E75
:101DC0000F5F1F4FF4E0EF0EF11C00331105D1F649
:101DD000DF91CF911F910F91FF90EF90DF900895C9
:101DE000AF92BF92CF92DF92EF92FF920F931F9329
:101DF000CF93DF931F92CDB7DEB7D82E2091FA0490
:101E0000221F2227221F8091FB04982F990FB22EA8
:101E1000B92A87FB882780F9EB2DF82FCF018C5446
:101E20009F4F68E671E00E94C0369C012E1B3F0B5D
:101E300037FF02C02D5F3F4F359527953595279584
:101E4000A22EC090FC040091DC031091DD032091D0
:101E5000DE033091DF039091FE04992359F0692F3E
:101E600070E08AE090E00E94C036CB01770FAA0BA9
:101E7000BB0B04C08AE090E0A0E0B0E08023912397
:101E8000A223B323892B8A2B8B2B41F40E94263764
:101E900060E370E00E94C036082F01C00FEFE12C14
:101EA000F12C10E0D11003C0E016F106A9F40E9455
:101EB000263783706B2D8A9D600D112469830E94E3
:101EC000263769817C2D8091FD040E94A50D472F46
:101ED000282FC7010E945A0E8FEFE81AF80A80E3F4
:101EE000E816F104F9F60F90DF91CF911F910F9151
:101EF000FF90EF90DF90CF90BF90AF900895CF927A
:101F0000DF92EF92FF921F93CF93DF938091DC03D8
:101F10009091DD03A091DE03B091DF030090FE04F9
:101F200004C0880F991FAA1FBB1F0A94D2F7182F4D
:101F30008AE1C82E81E0D82EC0E0D0E09FE3E92EF0
:101F4000F12CF60180818F3FE1F0FE01E150FB4F63
:101F50008081F4E08F9FC00111248034910524F426
:101F6000B701681B790B02C060E070E0610F7FEF82
:101F70008091FD040E94A50D472F282FCE010E94BD
:101F80005A0E219624E0C20ED11CC033D105C9F6E9
:101F9000DF91CF911F91FF90EF90DF90CF90089548
:101FA000CF92DF92EF92FF920F931F93CF93DF9325
:101FB0008091DC039091DD03A091DE03B091DF03FB
:101FC0000090FE0404C0880F991FAA1FBB1F0A942B
:101FD000D2F7D82EC090FD040AE111E0C0E0D0E0B5
:101FE0008FE3E82EF12CF80180818F3FF9F0FE019C
:101FF000E150FB4F2081F4E02F9F90011124203409
:1020000031052CF4C701821B930B9C0102C020E018
:1020100030E0F80161816D0D620F7FEF8C2D0E9421
:10202000A50D472F282FCE010E945A0E21960C5F36
:102030001F4FC033D105B9F6DF91CF911F910F919A
:10204000FF90EF90DF90CF900895CF92DF92EF92C4
:10205000FF920F931F93CF93DF938091DC039091B6
:10206000DD03A091DE03B091DF030090FE0404C005
:10207000880F991FAA1FBB1F0A94D2F7D82EC090B1
:10208000FD040AE111E0C0E0D0E08FE3E82EF12C7E
:10209000F80180818F3FF9F0FE01E150FB4F208174
:1020A000F4E02F9F90011124203431052CF4C70156
:1020B000821B930B9C0102C020E030E0F80162819A
:1020C0006D0D620F7FEF8C2D0E94A50D472F282FDD
:1020D000CE010E945A0E21960C5F1F4FC033D105CE
:1020E000B9F6DF91CF911F910F91FF90EF90DF90A4
:1020F000CF9008952F923F924F925F926F927F926E
:102100008F929F92AF92BF92CF92DF92EF92FF9207
:102110000F931F93CF93DF933090FC042090FD0426
:102120006091DC037091DD038091DE039091DF0309
:102130000E9421352BED3FE049E450E40E94EE354A
:1021400020E030E040E05CE30E94EE356B017C0172
:102150000E94743420E030E040E05DE30E94EE3500
:102160002B013C01C701B6010E945B3620E030E044
:1021700040EE52E40E9479344B015C01CCE1D1E0A5
:1021800000E010E0688170E080E090E00E9423357C
:1021900020E030E040E052E40E940734A3019201C5
:1021A0000E94EE356B017C01FE013197608170E089
:1021B00080E090E00E94233520E030E040EE52E4E1
:1021C0000E940734A50194010E94EE359B01AC01E9
:1021D000C701B6010E94083420E030E044E353E434
:1021E0000E94EE356B017C018091FA04881F8827DC
:1021F000881F9091FB04292F220F622F682B97FBD9
:10220000772770F9072E000C880B990B0E94233555
:102210009B01AC01C701B6010E9408340E94F23450
:10222000732D822D0E94A50D472F282FC8010E94D3
:102230005A0E0F5F1F4F24960033110509F0A2CFED
:10224000DF91CF911F910F91FF90EF90DF90CF9092
:10225000BF90AF909F908F907F906F905F904F90C6
:102260003F902F9008952F923F924F925F926F92DE
:102270007F928F929F92AF92BF92CF92DF92EF9216
:10228000FF920F931F93CF93DF93CDB7DEB72897BD
:102290000FB6F894DEBF0FBECDBF8091FC048D83D6
:1022A0009091FD049E836091DC037091DD03809129
:1022B000DE039091DF030E9421352BED3FE049E4DE
:1022C00050E40E94EE3520E030E040E05CE30E9404
:1022D000EE356B017C010E9474342B013C01C70177
:1022E000B6010E945B3669837A838B839C83ECE121
:1022F000F1E0F887EF8300E010E0EF81F885319797
:102300002080EF81F885B0803090FE04332079F092
:10231000632D70E080E090E00E94233520E030E003
:1023200040EC5FE30E94EE356B017C0106C0C12CDE
:10233000D12C90ECE92E9FE3F92E6B2D70E080E01C
:1023400090E00E94233520E030E040E052E40E941B
:1023500007349B01AC01C701B6010E94EE35A30111
:1023600092010E94EE354B015C01332079F0632D20
:1023700070E080E090E00E94233520E030E040EC07
:102380005FE30E94EE356B017C0106C0C12CD12CAD
:1023900080ECE82E8FE3F82E622D70E080E090E074
:1023A0000E94233520E030E040EE52E40E940734E2
:1023B0009B01AC01C701B6010E94EE3529813A812B
:1023C0004B815C810E94EE359B01AC01C501B401DB
:1023D0000E9408346B017C018091FA04881F8827D1
:1023E000881F9091FB04292F220F622F682B97FBE7
:1023F000772770F9072E000C880B990B0E94233564
:102400009B01AC01C701B6010E9408340E94F2345E
:102410007D818E810E94A50D472F282FC8010E9423
:102420005A0E0F5F1F4F8F819885049698878F8370
:102430000033110509F061CF28960FB6F894DEBF7E
:102440000FBECDBFDF91CF911F910F91FF90EF9005
:10245000DF90CF90BF90AF909F908F907F906F90C4
:102460005F904F903F902F9008952F923F924F9200
:102470005F926F927F928F929F92AF92BF92CF9214
:10248000DF92EF92FF920F931F93CF93DF9300D0D1
:1024900000D01F92CDB7DEB72091FC042A83809133
:1024A000FD048B836091DC037091DD038091DE037A
:1024B0009091DF030E9421352BED3FE049E450E489
:1024C0000E94EE3520E030E040E05CE30E94EE3513
:1024D0006B017C010E9474342B013C01C701B601E1
:1024E0000E945B364B015C01ACE1B1E0BD83AC8383
:1024F00000E010E0EC81FD813197B081B983EC817F
:10250000FD8130802090FE04222069F0622D70E071
:10251000660F771F072E000C880B990B0E9423353E
:102520006B017C0105C0C12CD12CE12C20E4F22EE2
:10253000632D70E080E090E00E94233520E030E0E1
:1025400040E052E40E9407349B01AC01C701B60190
:102550000E94EE35A30192010E94EE356B017C01D1
:10256000222021F0312C220C331C03C082E0282EC3
:10257000312CF9816F2F70E080E090E00E942335CC
:1025800020E030E040EE52E40E9407340E94EB3439
:102590009B0177FF04C022273327261B370B82E4D9
:1025A00090E0821B930B289EB001299E700D389EEF
:1025B000700D1124072E000C880B990B0E942335F7
:1025C000A50194010E94EE359B01AC01C701B60143
:1025D0000E9408346B017C018091FA04881F8827CF
:1025E000881F9091FB04292F220F622F682B97FBE5
:1025F000772770F9072E000C880B990B0E94233562
:102600009B01AC01C701B6010E9408340E94F2345C
:102610007A818B810E94A50D472F282FC8010E9427
:102620005A0E0F5F1F4F8C819D8104969D838C8372
:102630000033110509F05ECF0F900F900F900F90AF
:102640000F90DF91CF911F910F91FF90EF90DF904E
:10265000CF90BF90AF909F908F907F906F905F9042
:102660004F903F902F9008952F923F924F925F92FC
:102670006F927F928F929F92AF92BF92CF92DF9292
:10268000EF92FF920F931F93CF93DF9300D01F928F
:10269000CDB7DEB72090FC048091FD048983609162
:1026A000DC037091DD038091DE039091DF030E94D3
:1026B000213520E030E040E85BE30E94EE3520E089
:1026C00030E040E653E40E94EE352B013C01ECE1A2
:1026D000F1E0FB83EA8300E010E0EA81FB813197BF
:1026E0003080EA81FB81E080F090FE04FF2079F0E9
:1026F0006F2D70E080E090E00E94233520E030E014
:1027000040EC5FE30E94EE354B015C0106C0812C7A
:10271000912C90ECA92E9FE3B92E6E2D70E080E0F5
:1027200090E00E94233520E030E040E052E40E9437
:1027300007340E94EB349B0177FF04C02227332724
:10274000261B370BB901330F880B990B0E942335D9
:102750009B01AC01C501B4010E94EE352EE23DEBB8
:102760004BEB53EB0E94EE354B015C01FF2079F0FF
:102770006F2D70E080E090E00E94233520E030E093
:1027800040EC5FE30E94EE356B017C0106C0C12C7A
:10279000D12C80ECE82E8FE3F82E632D70E080E0E2
:1027A00090E00E942335A30192010E9407349B010F
:1027B000AC01C701B6010E94EE359B01AC01C50119
:1027C000B4010E9407346B017C018091FA04881FD8
:1027D0008827881F9091FB04292F220F622F682BD6
:1027E00097FB772770F9072E000C880B990B0E9436
:1027F00023359B01AC01C701B6010E9408340E9439
:10280000F234722D89810E94A50D472F282FC8010F
:102810000E945A0E0F5F1F4F8A819B8104969B83F3
:102820008A830033110509F058CF0F900F900F9055
:10283000DF91CF911F910F91FF90EF90DF90CF909C
:10284000BF90AF909F908F907F906F905F904F90D0
:102850003F902F900895CF92DF92FF920F931F9396
:10286000CF93DF931F92CDB7DEB7F82E0091DC0334
:102870001091DD032091DE033091DF039091FE047F
:10288000992359F0692F70E08AE090E00E94C036E9
:10289000AB01770F660B770B04C04AE050E060E0B5
:1028A00070E04023512362237323452B462B472B93
:1028B00039F40E94263760E370E00E94C03601C000
:1028C0008FEF00E010E0C82ED12CF11003C00C15E2
:1028D0001D0581F40E94263789830E942637782FB0
:1028E00069818091FD040E94A50D472F282FC80102
:1028F0000E945A0E0F5F1F4F0033110531F70F90E2
:10290000DF91CF911F910F91FF90DF90CF900895AD
:10291000089508950E9488140C9489144091FA0433
:1029200040FD08C00E94640E8091FA04817080937B
:10293000070108958091D603843120F48F5F80933E
:10294000D60308958091DC039091DD03A091DE030E
:10295000B091DF030196A11DB11D8093DC0390931C
:10296000DD03A093DE03B093DF038091D803909141
:10297000D903A091DA03B091DB038F3F2FEF9207C9
:10298000A207B20759F00196A11DB11D8093D8038B
:102990009093D903A093DA03B093DB038091D7031C
:1029A000EFEFF4E090819F3F61F09E3F41F4282FCC
:1029B00030E02230310514F0815001C080E09F5F8B
:1029C0009083319695E0EF32F90761F78093D70352
:1029D000E42FE695EF7380910601E81307C081E0CC
:1029E00090910701913019F480E001C081E081707D
:1029F000E093060191E0909307014E2F50E0FA0119
:102A00003197EB30F10520F5EA58FF4F0C94D4369E
:102A10000E94690E1DC00E947A101AC00E947E0E8C
:102A200017C00E94F00E14C00E947F0F11C00E94B8
:102A3000D00F0EC00E9425100BC00E94331108C099
:102A40000E94351205C00E94341302C00E942B144C
:102A50000C948A14E0914203F09143030995EFEF3F
:102A6000F4E08FEF819395E0EF32F907D9F70E94F8
:102A70006C26811104C00E94E4260E94450E0E942B
:102A80003B0E6093FA047093FB048093FC049093D4
:102A9000FD046E7761F40E94450E0E943B0E609328
:102AA000FA047093FB048093FC049093FD04089552
:102AB000EAEFF4E08081982F909590FB80F9808375
:102AC00060817181828193810C943F0E9091FA0410
:102AD000892F86958F5F8F7391788C3018F4880FCB
:102AE000892B02C0892F82608093FA046091FA04D6
:102AF0007091FB048091FC049091FD040C943F0EB6
:102B00009091FA04892F8695815C8F739178882340
:102B100019F0880F892B02C0892F86618093FA04EF
:102B20006091FA047091FB048091FC049091FD0483
:102B30000C943F0E8091FA04982F991F9927991FA2
:102B40008091FB04880F892B90E008968F3F9105B8
:102B500019F014F08FEF90E02091FA0480FB27F930
:102B60002093FA04282F26958091FB048078822BED
:102B700090FB87F98093FB046091FA047091FB0449
:102B80008091FC049091FD040C943F0E8091FA0416
:102B9000982F991F9927991F8091FB04880F892BE3
:102BA00090E0089797FF02C080E090E08F3F91058A
:102BB00019F014F08FEF90E02091FA0480FB27F9D0
:102BC0002093FA04282F26958091FB048078822B8D
:102BD00090FB87F98093FB046091FA047091FB04E9
:102BE0008091FC049091FD040C943F0E8091FC04B4
:102BF00090E008968F3F910519F014F08FEF90E068
:102C00008093FC046091FA047091FB048091FC04B1
:102C10009091FD040C943F0E8091FC0490E0089785
:102C200097FF02C080E090E08F3F910519F014F00B
:102C30008FEF90E08093FC046091FA047091FB04A4
:102C40008091FC049091FD040C943F0E8091FD0452
:102C500090E008968F3F910519F014F08FEF90E007
:102C60008093FD046091FA047091FB048091FC0450
:102C70009091FD040C943F0E8091FD0490E0089724
:102C800097FF02C080E090E08F3F910519F014F0AB
:102C90008FEF90E08093FD046091FA047091FB0443
:102CA0008091FC049091FD040C943F0E8091FE04F1
:102CB00090E001968430910514F083E090E08093D9
:102CC000FE046091FA047091FB048091FC049091E1
:102CD000FD040C943F0E8091FE0490E0019797FF55
:102CE00002C080E090E08430910514F083E090E031
:102CF0008093FE046091FA047091FB048091FC04BF
:102D00009091FD040C943F0EEAEFF4E08F73982F3E
:102D1000990F80818178892B808360817181828184
:102D200093810C943F0E6091FA0466956F7370E086
:102D300080E090E0089567E784E70C947018CF93E3
:102D40000E94AF1884E70E94F51687E70E94F516E7
:102D5000C0E021E041E061E08C2F0E948717CF5F47
:102D6000C033B9F767E784E7CF910C948318EFE499
:102D7000F6E06083418324E630E042E050E0BF01AA
:102D8000880F0C948519EF92FF921F93CF93DF93D6
:102D90007B01182F110FC0E0D0E08C2F8C5D809349
:102DA0004F0620E030E0F901EC0FFD1FEE0DFF1D96
:102DB0008081F901E15BF94F81832F5F3F4F203123
:102DC000310589F724E630E041E150E06FE476E038
:102DD000812F0E9485196096C039D105F1F6DF91E7
:102DE000CF911F91FF90EF900895CF93DF93C82F5D
:102DF0004BE06DEF0E94B71640E06AE08C2F0E9416
:102E0000B7168FE39CE90197F1F700C0000040E09E
:102E100060E08C2F0E94B71640E061E08C2F0E948A
:102E2000B71640E066E08C2F0E94B71640E06DEFC9
:102E30008C2F0E94B716D0E040E06D2F8C2F0E949F
:102E4000B716DF5FD231C1F740E06D2F8C2F0E94A3
:102E5000B716DF5FD432C1F740E06D2F8C2F0E9490
:102E6000B716DF5FD43BC1F74BE06DEF8C2F0E94AC
:102E7000B71641E06AE08C2F0E94B71640E06DEF74
:102E80008C2FDF91CF910C94B7168033910520F5EC
:102E9000880F991F880F991FFC01E652FE4F52813F
:102EA0003381808183707181E0E98E9FC00111249C
:102EB000815D9A4FFC01E70FF11DB4976083FC011F
:102EC000E50FF11DB4974083830F911DFC01B4976A
:102ED000208381E0809305040895FF920F931F9350
:102EE000CF93DF93182F062FF42EC0E0D0E02F2DC4
:102EF000402F612FCE010E9445172196C033D10586
:102F0000B1F7DF91CF911F910F91FF9008954F92EC
:102F10005F927F928F929F92AF92BF92CF92DF92F9
:102F2000EF92FF920F931F93CF93DF93362F54E0CE
:102F3000859FC0011124FC01E652FE4FA081A370C1
:102F40007A2E618170E0CB0184978C0197FF02C0DB
:102F5000095F1F4FA3E015950795AA95E1F76281D8
:102F600070E07B0154E2E51AF108E701F7FC2796CF
:102F700073E0D595C7957A95E1F7638170E04B01D1
:102F8000E4E28E1A9108F40197FC37962F0153E082
:102F9000559447945A95E1F768E0A62EB12CB501F7
:102FA0000E94C0366C01C701B5010E94C0367C0189
:102FB000C401B5010E94C036A72DB0E01127DD2461
:102FC0003323A1F032E13A9FB0013B9F700D1124F1
:102FD000060F171F0F511C4F61E070E001C0660F14
:102FE000CA94EAF7F8013081632B14C032E13A9FAA
:102FF000B0013B9F700D1124060F171F0F511C4F7E
:1030000061E070E001C0660FCA94EAF76095F801CC
:10301000308163236083DD27FF2432E1442391F074
:103020003A9FA0013B9F500D1124C40FD51FCF51D3
:10303000DC4F41E050E001C0440FEA94EAF73881E8
:10304000432B12C03A9FA0013B9F500D1124C40F87
:10305000D51FCF51DC4F41E050E001C0440FEA944E
:10306000EAF74095388143234883A20155279927E1
:1030700092E19A9FF0019B9FF00D1124E40FF51F40
:10308000EF51FC4F222361F021E030E0A90102C0A2
:10309000440F551F8A95E2F7CA019081892B0CC015
:1030A00021E030E0A90102C0440F551F8A95E2F7E4
:1030B000CA01809590818923808381E08093E00319
:1030C000DF91CF911F910F91FF90EF90DF90CF9004
:1030D000BF90AF909F908F907F905F904F9008959A
:1030E000CF9390910504992351F0C62F6FE275E0BC
:1030F0000E94C3166FEB75E08C2F0E94C3161092CE
:103100000504CF910895EF92FF920F931F93CF93F1
:10311000DF939091E0039923D9F0162F082F81EEC9
:10312000E82E83E0F82EC0E0D0E0F70141917F0166
:103130006C2F802F0E94B716FE01EF51FC4F428981
:103140006C2F812F0E94B7162196C231D10569F7E5
:10315000DF91CF911F910F91FF90EF900895109202
:10316000B9008CE08093B8000895EF92FF920F931E
:103170001F93CF93DF93182FEB011092BC0084EACA
:103180008093BC000E94E5277C019091BC0097FDD4
:103190000EC0CF3F8FEFD807C1F30E94E5278E19ED
:1031A0009F098C179D0788F38EEF9FEF2EC090919B
:1031B000B900987F983041F09091B900987F903194
:1031C00019F08FEF9FEF21C01093BB0084E880932C
:1031D000BC000E94E5278C019091BC0097FD0CC0BB
:1031E000CF3F8FEFD807C1F30E94E527801B910BDB
:1031F0008C179D0788F3D8CF8091B900887F8831DC
:1032000011F08034F1F680E090E0DF91CF911F91D2
:103210000F91FF90EF9008950F931F93CF93DF933B
:10322000EB018093BB0084E88093BC000E94E527FB
:103230008C019091BC0097FD0EC0CF3F8FEFD80757
:10324000C1F30E94E527801B910B8C179D0788F323
:103250008EEF9FEF0CC02091B900287F81E090E0B5
:10326000283211F480E090E0919581959109DF91E9
:10327000CF911F910F9108950F931F93CF93DF93D9
:10328000EC0184E88093BC000E94E5278C019091BA
:10329000BC0097FD0EC0CF3F8FEFD807C1F30E944F
:1032A000E527801B910B8C179D0788F38EEF9FEF0E
:1032B00003C08091BB0090E0DF91CF911F910F91EF
:1032C00008950F931F93CF93DF93EC0184E98093CC
:1032D000BC000E94E5278C019091BC0094FF0EC0B9
:1032E000CF3F8FEFD807C1F30E94E527801B910BDA
:1032F0008C179D0788F38EEF9FEF02C080E090E06F
:10330000DF91CF911F910F910895CF92DF92EF92AD
:10331000FF920F931F93CF93DF936B017A01890183
:10332000B9010E94B518FC01892BC9F4E601EC0C27
:10333000FD1CCE15DF0541F0B80189910E940C19E2
:10334000FC01892BB1F30BC0C801DF91CF911F9114
:103350000F91FF90EF90DF90CF900C946119CF0107
:10336000DF91CF911F910F91FF90EF90DF90CF9061
:10337000089590930B0480930A040895E0910A0441
:10338000F0910B04309721F00190F081E02D099429
:1033900080E00895E0910A04F0910B04309721F049
:1033A0000280F381E02D09940895E0910A04F091E0
:1033B0000B04309721F00480F581E02D09940895E5
:1033C00020910804309109048217930771F09093BB
:1033D000090480930804E0910A04F0910B043097EB
:1033E00021F00680F781E02D0994089520910604CC
:1033F000309107048217930771F09093070480932C
:103400000604E0910A04F0910B04309721F0008447
:10341000F185E02D0994089508950C940C1A81E02B
:1034200008950E94DC2785B7806885BF85B78068CE
:1034300085BF0E94A2040C947328CF92DF92EF9272
:10344000FF920F931F93CF93DF93CDB7DEB72B97E8
:103450000FB6F894DEBF0FBECDBF0E9414050E94C8
:103460000F1A811111C08FEF89838A831B820E94FA
:10347000E5278160782F9D838C8349815A816B81F8
:103480008D810E94011B56C08DE0C82E84E0D82E8D
:1034900000E010E0E02E802F0E948205F6014191AD
:1034A0006F01F42EF82631F40F5F1F4F0E30110517
:1034B00089F7D9CF9091C80491FF04C08B870E94EF
:1034C00088058B8520E030E04F2D50E0922FBA0127
:1034D000022E02C0759567950A94E2F760FF24C03A
:1034E0002E83EF8221E030E0690102C0CC0CDD1CAC
:1034F0009A95E2F790E08C219D21892B09F420E038
:1035000028870E94E5278160782F9A8789874E81D6
:103510005F8168858A850E94011BF801E35FFB4F8C
:103520008081C826C08206C02F5F3F4F26303105FC
:1035300069F6BACF0E94062A10910C040E94BE19A7
:103540001817A1F00E94BE1980930C042B960FB699
:10355000F894DEBF0FBECDBFDF91CF911F910F91C9
:10356000FF90EF90DF90CF900C945E072B960FB6F4
:10357000F894DEBF0FBECDBFDF91CF911F910F91A9
:10358000FF90EF90DF90CF900895DC0111962C9181
:1035900011978C91682F70E041E050E001C0440F1A
:1035A0008A95EAF712968C91129730E0882329F0D9
:1035B00080912B048823E9F006C0F901E55EFB4FFA
:1035C00090819423B1F086E0829FF001839FF00DFB
:1035D0001124E60FF71FEE0FFF1FE656FD4F808107
:1035E00091818D939C93F901E55EFB4F8081482B7F
:1035F00006C0F901E55EFB4F40958081482340837A
:103600000895CF93DF93CDB7DEB72B970FB6F8941D
:10361000DEBF0FBECDBF942F4F83252F58876987FC
:103620007A878B874A855B85452B21F02F3F09F5EB
:103630009F3FF9F4DE01119686E0FD0111928A9513
:10364000E9F785E0FE01379601900D928A95E1F742
:1036500049815A816B817C818D819E810E94832268
:103660002B960FB6F894DEBF0FBECDBFDF91CF9182
:103670000895CE0107960E94C51ADCCFFC01808117
:1036800091810E944E2592959F70963041F48091D1
:103690002B0491E0892780932B0490932A040895AA
:1036A000CF93DF931F92CDB7DEB7882309F40DC106
:1036B000682F8238C1F40E94BE1981FD06C169E3FA
:1036C00080910801909109010E9442270E94AD2536
:1036D0002FEF81EE94E0215080409040E1F700C050
:1036E000000069E319C0833811F50E94BE1980FDFE
:1036F000ECC063E580910801909109010E94422786
:103700000E94AD252FEF81EE94E021508040904043
:10371000E1F700C0000063E5809108019091090184
:103720000E944D270F90DF91CF910C94AD258438E6
:10373000C1F40E94BE1982FDC8C067E480910801EF
:10374000909109010E9442270E94AD252FEF81EE42
:1037500094E0215080409040E1F700C0000067E411
:10376000DBCF8CEF860F813A70F4862F69830E943D
:103770003C2C69818111A9C08091080190910901B7
:103780000E944227CFCF80E2860F883048F46770CE
:1037900081E001C0880F6A95EAF70E94E325C2CF55
:1037A0008BE5860F833088F4653A29F0663A31F06C
:1037B00083E890E005C081E890E002C082E890E0F4
:1037C0000F90DF91CF910C94E01988E5860F853139
:1037D00008F071C0683A61F1693A69F16A3A71F1C9
:1037E0006B3A79F16C3A81F16B3B89F16C3B91F169
:1037F0006D3A99F1603BA1F16E3AA9F16F3AB1F1DE
:10380000613BB9F1623BC1F1633BC9F1643BD1F16A
:10381000653BD9F1663BE1F1673BE9F1683BF1F1CA
:10382000693BF9F16A3B09F43FC080E090E03EC09B
:1038300082EE90E03BC089EE90E038C08AEE90E0E6
:1038400035C085EB90E032C086EB90E02FC083EB73
:1038500090E02CC084EB90E029C087EB90E026C07C
:103860008CEC90E023C08DEC90E020C083E891E0E8
:103870001DC08AE891E01AC082E991E017C084E98E
:1038800091E014C081E292E011C083E292E00EC0A8
:1038900084E292E00BC085E292E008C086E292E00A
:1038A00005C087E292E002C08AE292E00F90DF91C9
:1038B000CF910C94F619603F40F0862F0E940E299C
:1038C0000F90DF91CF910C94FB290F90DF91CF9156
:1038D0000895882309F464C0823879F40E94BE19DF
:1038E00081FF5EC069E380910801909109010E9407
:1038F00042270E94AD2569E310C08338B1F40E94CD
:10390000BE1980FF4DC063E58091080190910901C7
:103910000E9442270E94AD2563E5809108019091A5
:1039200009010E944D270C94AD25843879F40E943A
:10393000BE1982FF35C067E48091080190910901AA
:103940000E9442270E94AD2567E4E7CF9CEF980FC5
:10395000913A10F4682FE1CF90E2980F983050F42C
:10396000877091E001C0990F8A95EAF7892F0E942C
:10397000E925D9CF9BE5980F933020F480E090E0C3
:103980000C94E01998E5980F953120F480E090E0D0
:103990000C94F619803F20F00E9476290C94FB29A4
:1039A0000895882321F00E94E3250C94AD25089505
:1039B000882321F00E94E9250C94AD2508958F926B
:1039C0009F92AF92BF92DF92EF92FF920F931F935D
:1039D000CF93DF937C01D62FC72FFC010581029581
:1039E0000F70128111110E9400260E94A6258823C3
:1039F00079F0112369F080E28D0F883048F082E081
:103A00000E948F250E94A62591E0D82ED92601C0BC
:103A1000D12CAC2EA2948FE0A822B12CF501EF5747
:103A2000FF4F0C94D4368C2F807FCF70882311F0F9
:103A3000C295C07F112399F0CC2309F4C8C180E25C
:103A40008D0F883010F0D11104C08C2F0E94E32517
:103A500003C08C2F0E94F3250E94AD25B8C18D2F85
:103A60000E94691CCC2309F42EC280E28D0F88309D
:103A700010F0D11104C08C2F0E94E92503C08C2FB7
:103A80000E94F9250E94AD251EC28C2F807FCF7029
:103A9000803211F0C295C07FDD2319F0D130C9F01A
:103AA00021C0112371F0002341F0013031F40E9454
:103AB00019268C2B0E94132606C20E9419268C2BD5
:103AC0003FC1002319F0013009F4FDC10E94162600
:103AD00011C0112321F0023008F0F5C107C0011117
:103AE000F2C108C0112321F0011171C18C2F28C12E
:103AF00001117EC18C2F2AC18C2F869586958370EB
:103B000090E0009719F0019761F0DDC1112321F0D9
:103B10008D2F9C2F937002C080E090E00E94E019EE
:103B2000E2C1112321F08D2F9C2F937002C080E001
:103B300090E00E94F619D7C11123F9F0D53F51F05A
:103B4000D63F71F0D43FA9F480916306909164064A
:103B500081600BC08091630690916406826005C00D
:103B600080916306909164068460909364068093CC
:103B700063068D2F0E940E291EC0D53F51F0D63FFF
:103B800071F0D43FA9F480916306909164068E7F12
:103B90000BC080916306909164068D7F05C0809173
:103BA0006306909164068B7F90936406809363060E
:103BB0008D2F0E9476290E94FB2995C18C2F83703E
:103BC00009F050C011118BC18D2F82958695877099
:103BD000880F880F9D2F9F70892E912CA12CB12CBE
:103BE000082E04C0880C991CAA1CBB1C0A94D2F78E
:103BF000D4FF14C00FE010E020E030E0B901A801CC
:103C000004C0440F551F661F771F8A95D2F7CB015A
:103C1000BA01609570958095909503C060E070E062
:103C2000CB01C695C695C370D0E0C230D10561F016
:103C3000C330D10581F0682979298A299B292197E8
:103C400071F00E94C8234BC1682979298A299B29D0
:103C50000E94DA2344C10E94C823C501B4010E9416
:103C6000B6233DC1112319F08C2F817001C08695B8
:103C7000882309F434C18D2F829586958770880F2B
:103C8000880F9D2F9F70892E912CA12CB12C082E6E
:103C900004C0880C991CAA1CBB1C0A94D2F7D4FF40
:103CA00014C00FE010E020E030E0B901A80104C02A
:103CB000440F551F661F771F8A95D2F7CB01BA01B3
:103CC000609570958095909503C060E070E0CB01A1
:103CD000C695C695C3704C2F50E04230510569F02F
:103CE0004330510589F0682979298A299B29413077
:103CF000510571F00E948D24F2C0682979298A2922
:103D00009B290E949F24EBC00E948D24C501B40111
:103D10000E947B24E4C08D2F90E0FC01E05EF1095D
:103D2000E531F10508F04FC0EF56FF4F0C94D43643
:103D3000DF708C2F8F71112331F00E9414248D2F8E
:103D40000E94D11CC0C00E9435248D2F0E94D81C17
:103D5000BAC0112339F00111B6C08C2F8F710E94A7
:103D60005A24B1C0023008F0AEC0F7CF112339F0A9
:103D70008C2F8F710E941424A6C01123C9F38C2F9D
:103D80008F710E9435249FC0112329F08C2F8F71D1
:103D90000E94FF2398C00E94FA2395C0112349F086
:103DA000CF718C2F0E94142463E08C2F0E948625F3
:103DB0008AC081E00E948F25023008F484C082E02E
:103DC0000E948F2580C0112331F0002389F28D2FAE
:103DD0000E94501B78C0002391F2D93349F45FEF61
:103DE00067EE73E0515060407040E1F700C00000A2
:103DF0008D2F0E94691C67C04C2F4F706D2FC7011B
:103E00000E9472060E9427236EC0D23FB1F028F4B0
:103E1000D03F49F0D13FF9F028C0D43FB9F058F075
:103E2000D53F71F022C0112309F447C090912B04B3
:103E300081E0892708C081E0182710932B043DC03A
:103E400011113BC081E080932B0437C0111135C0A4
:103E500010922B0432C0112329F080912A04882368
:103E600029F329C0002311F328C080912A040023DC
:103E7000C1F0882341F090912B0481E08927809341
:103E80002B0410922A048D2F112319F00E94501B2D
:103E900014C00E94691C86E0F70111928A95E9F727
:103EA0000CC0882351F0111108C090912B0481E0BF
:103EB000892780932B0410922A044C2F4F706D2F6A
:103EC000C7010E94220AF8E0AF16B10441F05CF08D
:103ED0004AE0A41AB10852E0A516B10420F40E94E9
:103EE000BE190E945E07DD20E1F00E94822580FD60
:103EF00018C0F70112820E947C250E941424C70179
:103F00000E949D1F0E947C25DF91CF911F910F91F0
:103F1000FF90EF90DF90BF90AF909F908F900C94A8
:103F20003524DF91CF911F910F91FF90EF90DF909B
:103F3000BF90AF909F908F9008950F931F93CF9352
:103F4000DF93EC01888199812B813C81232BB9F08F
:103F50009F3F11F48F3F99F0CE010E947007882394
:103F600071F0688179818A810E9459258C010E94B3
:103F7000B1240E94B323B801CE010E94DF1CDF915F
:103F8000CF911F910F9108950E9400260E94102644
:103F900080910801909109010E9458270E94AD2547
:103FA0000E94A12A0E94FB2980E090E00E94E01973
:103FB00080E090E00C94F6190E94F0250C94C41F48
:103FC0000E944E25E92FE295EF70F0E03297EE3037
:103FD000F105B0F4EA55FF4F0C94D436803F91F0D0
:103FE00018F4803E68F40EC0843F51F40BC0803E4C
:103FF00048F0813F29F406C093FB882780F9089593
:1040000080E0089581E00895CF93DF9300D000D041
:104010001F92CDB7DEB70F900F900F900F900F90BB
:10402000DF91CF910895CF93DF9300D000D000D0DF
:10403000CDB7DEB726960FB6F894DEBF0FBECDBF64
:10404000DF91CF9108951F93CF93DF93C0912C04FC
:1040500016E080912D04C81799F0D0E01C9FF00164
:104060001D9FF00D1124E25DFB4F40815181628163
:104070007381848195810E9413202196C770E9CFB6
:10408000DF91CF911F91089540915E0450915F049C
:104090006091600470916104809162049091630466
:1040A0000C9413208091630482958F7009F054C0A2
:1040B00080916004882309F44FC080912C04A09162
:1040C0002D0460915E0470915F04409161045091F1
:1040D0006204B6E08A1709F43FC090E0411551052B
:1040E000C1F17F3F11F46F3FA1F1B89FF001B99F7B
:1040F000F00D1124E25DFB4F218172132AC0208153
:10410000621327C02281211124C023813481241706
:10411000350710F421503109241B350B283C31059B
:10412000C0F4209163042F7020612093630426E083
:10413000289FF001299FF00D1124ED5CFB4F808139
:104140008F70806180838EE594E00E949D1F0C94A7
:10415000232001968770BECF0895CF92DF92EF9211
:10416000FF920F931F93CF93DF93CDB7DEB7629784
:104170000FB6F894DEBF0FBECDBF8C0185E0F8010D
:10418000DE011D9601900D928A95E1F7D8014C91C0
:1041900011965C91119712966C9112971396CD908F
:1041A000DC90149730915E0470915F0480916104FB
:1041B00090916204009709F46BC17F3F19F43F3F6F
:1041C00009F466C1E0906004EE2009F4C0C02091BB
:1041D0006304C816D90628F0F601E81BF90BCF01D5
:1041E00004C0809590958C0D9D1DFF24F394883C10
:1041F000910578F0F12C207F09F0C6C07C2DD98A7A
:10420000C88A89890E9404208EE594E00E949D1F3F
:10421000B1C0822F807F09F046C0751314C03413DB
:1042200012C0611110C02F702061209363040E949E
:1042300044208EE594E00E949D1F80916304D80184
:1042400015968C932EC0CD2819F15F3F11F44F3F86
:10425000F9F0F62E61111CC080912C0420912D04E0
:1042600036E0821709F45AC090E0389FF001399F78
:10427000F00D1124E25DFB4F7181571306C0708170
:10428000471303C07281711103C001968770E9CF93
:10429000F62E662309F427C1809163048160809320
:1042A0006304F12C20C1751308C0341306C06111DA
:1042B00004C080916304D801C3C04D875E878D859B
:1042C0009E856A8B0E94E01F6A898823E1F166233C
:1042D000D1F120916304822F82958F7090E0029734
:1042E00074F080915E0490915F0498878F831986A3
:1042F000DB86CA862C87CE0107960E949D1F86E02A
:10430000F801AEE5B4E001900D928A95E1F70E94C4
:1043100052200E944420FF24F394E5C04D875E871D
:104320008D859E850E944E25292F22952F7030E085
:10433000223031050CF0CBC09F7009F0C5C0805E03
:10434000883008F4D0C0C8010E949D1FE4CFC81671
:10435000D90608F453C0F601E81BF90BCF01883CDD
:10436000910508F450C0F12C7C2DD98AC88A89891E
:104370000E940420EEE5F4E086E0DF011D928A95BC
:10438000E9F70E944420AFC0751314C0341312C063
:10439000611110C080916304F8018583C8010E94F7
:1043A0009D1F86E0EEE5F4E0DF011D928A95E9F7B6
:1043B000FE2C99C04D875E878D859E856A8B0E94F5
:1043C000E01F6A89882309F4BECF662309F4BBCFB6
:1043D00020916304822F82958F7090E002970CF4F5
:1043E0008ECF80915E0490915F049A8389831B82B3
:1043F000DD82CC822E83CE0101967FCF8095909571
:104400008C0D9D1DACCFF62E662309F49CCF751341
:104410002EC034132CC02091630420FD1FC0822FB6
:1044200082958F70D9F0D80115962C9315978F30FF
:1044300049F08F5F982F9295907F822F8F70892BF4
:1044400015968C93C8010E949D1F86E0F801AEE589
:10445000B4E001900D928A95E1F793CF86E0F801E0
:10446000AEE5B4E001900D928A95E1F73CC04D872E
:104470005E878D859E850E94E01F811140CF8091CF
:104480006304816080936304C8010E949D1F2BC058
:10449000662309F458CF4D875E878D859E850E94DF
:1044A000E01FF82E882309F44ECF86E0F801AEE530
:1044B000B4E001900D928A95E1F78EE594E00E94B8
:1044C0003E1B0E9452205DCF811139CF0CC0243099
:1044D00031050CF038CF9F7009F431CFF801958188
:1044E000907F09F02CCF8F2D62960FB6F894DEBF27
:1044F0000FBECDBFDF91CF911F910F91FF90EF9035
:10450000DF90CF9008951F93CF93DF93CDB7DEB7A1
:104510002C970FB6F894DEBF0FBECDBF4F835887E0
:1045200069877A878B879C87CE0107960E94AD208A
:10453000882369F08F8198852A853B85232BF1F1AB
:104540009F3F09F063C08F3F09F060C037C086E02D
:10455000FE013796DE01119601900D928A95E1F7E2
:104560006F817885EA85FB85309741F17F3F11F4B3
:104570006F3F21F120912D0430E0C9010196877031
:10458000992740912C0450E08417950709F447C0FF
:1045900069837A83FD83EC8396E0929FD001939F99
:1045A000B00D1124A25DBB4FFE01319601900D921A
:1045B0009A95E1F780932D040E94232016E08091C4
:1045C0002C0490912D048917C1F1189FC00111246A
:1045D000825D9B4F0E94AD20882379F1E0912C04ED
:1045E0001E9FF0011124E25DFB4F408151816281E9
:1045F0007381848195810E94132080912C0490E026
:1046000001968770992780932C04D9CF4F815885C4
:1046100069857A858B859C850E941320CFCF0E9467
:10462000DC1F10922D0410922C04EEE5F4E086E0DD
:10463000DF011D928A95E9F7C1CF2C960FB6F89449
:10464000DEBF0FBECDBFDF91CF911F910895EF92D6
:10465000FF920F931F93CF93DF938C01892B09F463
:104660006CC0F12CEE24E394E8012196F8018491CA
:10467000843740F4843008F051C0813081F08230BA
:1046800019F15BC0853709F444C0A8F19CE7980F85
:10469000903708F052C08F770E94691C41C00E5FAE
:1046A0001F4FFE01C49180E28C0F883048F4C77020
:1046B0008E2D01C0880FCA95EAF70E94032614C008
:1046C0008C2F0E94501B2DC00E5F1F4FFE01C49106
:1046D00080E28C0F883058F4C7708E2D01C0880F8F
:1046E000CA95EAF70E9409260E94AD251AC08C2FB0
:1046F0000E94691C16C00E5F1F4FFE01C491CC239F
:1047000081F08FE99FE00197F1F700C00000C150F0
:10471000F6CF0E5F1F4FFE01F49003C00E94501BA6
:104720008E018F2D882309F49FCFEFE9FFE03197A9
:10473000F1F700C000008150F5CFDF91CF911F91BC
:104740000F91FF90EF90089508950C94A4230E9478
:10475000A52360939F047093A0048093A104909379
:10476000A2040C94C41F08950C94A7230F931F93C5
:1047700000919F041091A0042091A1043091A20403
:10478000602B712B822B932B1F910F910C94A723DD
:104790000F931F9300919F041091A0042091A104F6
:1047A0003091A20460237123822393231F910F91E0
:1047B0000C94A7230F931F9300919F041091A004C2
:1047C0002091A1043091A2046027712782279327AA
:1047D0001F910F910C94A7230C9499060E94EC232F
:1047E00060939B0470939C0480939D0490939E041B
:1047F0000C94C41F60E070E0CB010C94EE230F9387
:104800001F9341E050E060E070E08A019B0104C02A
:10481000000F111F221F331F8A95D2F7C901B8015B
:104820001F910F910C94EE230F931F9341E050E0E2
:1048300060E070E004C0440F551F661F771F8A9523
:10484000D2F780919B0490919C04A0919D04B0911B
:104850009E048A019B01082B192B2A2B3B2BC90193
:10486000B8011F910F910C94EE230F931F9341E019
:1048700050E060E070E004C0440F551F661F771FD2
:104880008A95D2F7409550956095709580919B04DC
:1048900090919C04A0919D04B0919E048A019B017B
:1048A000082319232A233B23C901B8011F910F9123
:1048B0000C94EE230F931F9341E050E060E070E012
:1048C00004C0440F551F661F771F8A95D2F7809149
:1048D0009B0490919C04A0919D04B0919E048A0138
:1048E0009B01082719272A273B27C901B8011F91D7
:1048F0000F910C94EE230F931F9300919B04109142
:104900009C0420919D0430919E04602B712B822B7E
:10491000932B1F910F910C94EE230F931F930091F3
:104920009B0410919C0420919D0430919E0460236F
:104930007123822393231F910F910C94EE230F93E5
:104940001F9300919B0410919C0420919D04309131
:104950009E0460277127822793271F910F910C9443
:10496000EE230895292F220F920F990F890FA82F58
:10497000A695A695A695877051E001C0550F8A951A
:10498000EAF785E0A89FD001112420E030E070E034
:10499000F901EA0FFB1FEC59FB4F4081CB01022EBE
:1049A00002C0969587950A94E2F7817099278195C0
:1049B00084278523842780832F5F3F4F253031054F
:1049C00039F70895292F220F920F990F890F682F19
:1049D000669566956695982F977085E0689FB001FB
:1049E000112440E050E080E0FA01E60FF71FEC5997
:1049F000FB4F208130E0092E02C0369527950A949E
:104A0000E2F721703327042E01C0220F0A94EAF73F
:104A1000822B4F5F5F4F4530510531F70895CF929C
:104A2000DF92EF92FF920F931F93CF93DF938C014E
:104A3000C0909F04D090A004E090A104F090A20444
:104A400080919B0490919C04A0919D04B0919E0440
:104A5000C82AD92AEA2AFB2ACFE1D0E0D701C60129
:104A60000C2E04C0B695A795979587950A94D2F712
:104A700080FF06C0B8018C2F0E943D0A019721F4E7
:104A8000219760F780E001C08C2FDF91CF911F91BB
:104A90000F91FF90EF90DF90CF900895CF93DF9329
:104AA000EC010E940F25BE010E943D0ADF91CF91CB
:104AB00008951F93CF93DF93EB01909129049923DD
:104AC00021F0CB010E944E2513C0882349F0CB0171
:104AD0000E940F25182F682FCE010E94B22404C017
:104AE000CB010E94E224182FBE01812F0E943D0AB3
:104AF000DF91CF911F9108958091A30485958595AD
:104B0000859508958091A3048770089598E0899F02
:104B100090011124262B2093A3040C94142420919B
:104B2000A304809582238093A304982F977069F43F
:104B300030E0482F082E000C550B2417350729F0BC
:104B40008595859585950C94352408959091A304B9
:104B5000977081E009F480E00895E0910801F091F8
:104B600009018091C7048083E0910801F091090157
:104B700090818091C604892B8083E0910801F09197
:104B8000090190818091C504892B80838091A404C0
:104B9000882381F0E0910801F09109019081892B2F
:104BA000808380910801909109010E94E62681117D
:104BB0001092A40480910801909109010C94CA19E3
:104BC0008091C70408959091C704892B8093C704EE
:104BD000089580959091C70489238093C704089510
:104BE0001092C70408959091C604892B8093C6043F
:104BF000089580959091C60489238093C6040895F2
:104C00001092C60408959091C504892B8093C50421
:104C1000089580959091C50489238093C5040895D3
:104C20001092C50408958093A40408951092A404DA
:104C300008958091A4040895CF92DF92EF92FF929D
:104C40006C01EE24FF24C114D104E104F10421F02D
:104C5000C701B60120E101C020E0C72ED82EE92E01
:104C6000FF24C114D104E104F10419F0285FC70145
:104C7000B6016B017C0154E0F694E794D794C79495
:104C80005A95D1F7C114D104E104F10419F02C5F55
:104C9000C701B6016B017C0142E0F694E794D7941A
:104CA000C7944A95D1F7C114D104E104F10419F075
:104CB0002E5FC701B601DC01CB01B695A79597958C
:104CC0008795892B8A2B8B2B09F02F5F822FFF90E2
:104CD000EF90DF90CF90089580E090E00E944437FD
:104CE00021E08D3E9E4F09F020E0822F089580E064
:104CF00090E00E94443721E0019609F020E0822FE5
:104D0000089582E090E00C94363783E090E00C94B4
:104D1000363784E090E00C943637682F84E090E0DA
:104D20000C944A37AB01BC018FE090E00C945C37E7
:104D3000AB01BC0183E190E00C945C3760E070E073
:104D4000CB010C94982660E070E0CB010E94922683
:104D50000C949E266DEE7EEF80E090E00E94683716
:104D600060E082E090E00E944A3760E083E090E0FB
:104D70000E944A3710929F041092A0041092A1043E
:104D80001092A20460E084E090E00E944A3760E064
:104D900085E090E00E944A3760E086E090E00E9463
:104DA0004A376FEF87E090E00E944A3740E050E0DA
:104DB000BA0188E090E00E945C3760E08DE090E00E
:104DC0000E944A370C94A3260C94AA26FC01319623
:104DD0009C01205E3F4F80E0919191118F5FE2171F
:104DE000F307D1F708959C01FC0132969FEF80E014
:104DF0004191461789F09F3F19F4411101C0982F46
:104E00008F5F8E31A9F79F3F39F0F901E90FF11D4E
:104E100097FDFA95628308950895FC013296809675
:104E20002081261301C010823196E817F907C1F7D7
:104E30000895262F2695269526952F3168F4FC0196
:104E4000E20FF11D677021E030E001C0220F6A958A
:104E5000EAF78181282B21830895262F2695269510
:104E600026952F3170F4FC01E20FF11D677021E0EF
:104E700030E001C0220F6A95EAF72095818128234E
:104E80002183089520911901222329F02091690698
:104E900027FD0C9419270C94F32620911901222345
:104EA00029F02091690627FD0C942D270C940D27DD
:104EB000FC01319680961192E817F907E1F7089501
:104EC00008950C9460270E94612780916F068430BA
:104ED00049F11092C90420E488E190E00FB6F894FB
:104EE000A895809360000FBE2093600080E00E9430
:104EF0005E070E94612783B7817F846083BF83B789
:104F0000816083BF7894889583B78E7F83BF0FB607
:104F1000F894A89580916000886180936000109259
:104F200060000FBE08950895CF930E94C4040E94AC
:104F300014050E949327C0E08C2F0E9482058111E6
:104F400004C0CF5FCE30C1F701C081E0CF9108959A
:104F500008950C94A8270E94DC1F0E94BE190E948D
:104F60005E070C94A9271F920F920FB60F9211247F
:104F70008F939F93AF93BF938091C904811113C006
:104F80008091650690916606A0916706B0916806CB
:104F90004196A11DB11D8093650690936606A0936E
:104FA0006706B0936806BF91AF919F918F910F9064
:104FB0000FBE0F901F90189582E084BD93E095BDC1
:104FC0009AEF97BD80936E0008952FB7F894809163
:104FD000650690916606A0916706B09168062FBF9E
:104FE0000895CF92DF92EF92FF920F931F932FB706
:104FF000F89440916506509166066091670670913D
:1050000068062FBF6A017B01EE24FF248C0120E09B
:1050100030E0C016D106E206F30610F44150510903
:105020009A01281B390BC9011F910F91FF90EF9036
:10503000DF90CF90089578941F920F920FB60F9241
:1050400011248F939F93AF93BF93809165069091A6
:105050006606A0916706B09168060196A11DB11D74
:105060008093650690936606A0936706B0936806E2
:10507000BF91AF919F918F910F900FBE0F901F9096
:105080001895F89481E08093E00080E28093D80046
:10509000E9ECF0E010828FE19EE40197F1F700C0A7
:1050A00000001DBA109268001CBC10BE1FBA1092FE
:1050B0007A0010926E0010926F00109271001092A0
:1050C00072001082ECEBF0E0108214B817B81AB836
:1050D0001DB810BA108215B818B81BB81EB811BA8E
:1050E0000C94003F08950E946C26811102C00E941A
:1050F000E4260E9481268093C8040E94892690E0BD
:1051000090936A06809369060E948526682F70E056
:1051100080E090E00C94B4238091CD0480FF0BC01C
:1051200060910D0185E0689FB00111247595679528
:10513000759567952BC081FF09C060910D0185E0D1
:10514000689FB00111247595679520C082FF07C044
:1051500060910D0185E0689FB001112417C0909106
:10516000CE049923D1F060910C01961788F7209115
:105170000D0185E0289F90011124929FA001939F2B
:10518000500D112470E0CA010E94C03660387105CC
:1051900040F46115710539F002C065E070E0862FBA
:1051A00008958FE7089581E008958091CD0480FFF0
:1051B00008C060910B0170E07595679575956795CE
:1051C00021C081FF06C060910B0170E07595679565
:1051D00019C082FF04C060910B0170E010C0909173
:1051E000CE049923C1F060910A019617A0F780912F
:1051F0000B01899FC001112470E00E94C036603805
:10520000710528F46115710521F0862F08958FE747
:10521000089581E0089561E070E0F4CF803F21F4CB
:105220000E948C28819504C0813F29F40E948C281B
:105230008093D1040895823F21F40E948C288195A7
:1052400004C0833F29F40E948C288093D0040895E1
:10525000893F19F40E94D52805C08A3F31F40E9485
:10526000D52881958093D20408958B3F21F40E9424
:10527000D528819504C08C3F29F40E94D5288093BD
:10528000D3040895843F21F48091CF04816017C036
:10529000853F21F48091CF04826011C0863F21F4C4
:1052A0008091CF0484600BC0873F21F48091CF04AC
:1052B000886005C0883F31F48091CF04806180937D
:1052C000CF0408958D3F21F48091CD0481600BC0FF
:1052D0008E3F21F48091CD04826005C08F3F29F478
:1052E0008091CD0484608093CD040895803F39F48B
:1052F0008091D10487FF6CC01092D10469C0813FB6
:1053000029F48091D1041816BCF362C09091D004A6
:10531000823F29F497FF5CC01092D00459C0833FAC
:1053200019F41916CCF354C0893F41F48091D2048A
:1053300018160CF04DC01092D2044AC08A3F29F4CE
:105340008091D20487FF44C0F6CF8B3F39F480911F
:10535000D30487FF3DC01092D3043AC08C3F29F498
:105360008091D3041816BCF333C0843F21F480919C
:10537000CF048E7F17C0853F21F48091CF048D7FAD
:1053800011C0863F21F48091CF048B7F0BC0873FF3
:1053900021F48091CF04877F05C0883F31F480914C
:1053A000CF048F7E8093CF0413C08D3F21F4809172
:1053B000CD048E7F0BC08E3F21F48091CD048D7F74
:1053C00005C08F3F29F48091CD048B7F8093CD045D
:1053D0008091D00481110EC08091D10481110AC046
:1053E0008091D204811106C08091D304811102C042
:1053F0001092CE0408958FEC94E00E94D5190E947B
:10540000E5279093CB048093CA0408951F93CF930C
:10541000DF938091CA049091CB040E94F127AC01E4
:105420009091CE04992321F020910E0130E006C026
:105430002091CC048AE0289F900111244217530741
:1054400008F47BC08091D004C091D104D091D204E3
:105450001091D304811107C0C1116BC0D11169C073
:10546000111167C06AC09F3F19F09F5F9093CE04EF
:10547000181624F40E948C288093D0048091D004C4
:1054800087FF05C00E948C2881958093D0041C164C
:1054900024F40E948C288093D1048091D10487FF4A
:1054A00005C00E948C2881958093D1043091D0044E
:1054B0003323E1F02091D1042223C1F045EB3403E2
:1054C000C0011124892F990F990B009709F481E0ED
:1054D0008093D00435EB2303C0011124892F990F49
:1054E000990B009709F481E08093D1041D1624F4F0
:1054F0000E94D5288093D2048091D20487FF05C0F2
:105500000E94D52881958093D204111624F40E941C
:10551000D5288093D3048091D30487FF05C00E94CF
:10552000D52881958093D304DF91CF911F910C945E
:10553000FB299F3F09F099CFA1CFDF91CF911F9118
:105540000895EFECF4E085E0DF011D928A95E9F71C
:105550001092CE041092CD040895833081F128F486
:10556000813059F08230D1F00895853009F449C076
:10557000B8F1863009F456C008958091CC04262FE6
:1055800030E0280F311D2F3F310524F4680F609360
:10559000CC0408958FEF8093CC04089580910E0180
:1055A000262F30E0280F311D2F3F310524F4680FDE
:1055B00060930E0108958FEF80930E0108958091FE
:1055C0000D01262F30E0280F311D2F3F310524F427
:1055D000680F60930D0108958FEF80930D0108957A
:1055E00080910C01262F30E0280F311D2F3F31050F
:1055F00024F4680F60930C0108958FEF80930C01E1
:10560000089580910B01262F30E0280F311D2F3F88
:10561000310524F4680F60930B0108958FEF809398
:105620000B01089580910A01262F30E0280F311DCB
:105630002F3F310524F4680F60930A0108958FEF1E
:1056400080930A010895833011F128F4813049F0E4
:10565000823091F00895853081F120F18630C1F1DA
:1056600008958091CC04681720F4861B8093CC04A5
:1056700008951092CC04089580910E01681720F4CB
:10568000861B80930E01089510920E01089580915B
:105690000D01681720F4861B80930D010895109268
:1056A0000D01089580910C01681720F4861B8093EA
:1056B0000C01089510920C01089580910B01681758
:1056C00020F4861B80930B01089510920B0108951E
:1056D00080910A01681720F4861B80930A010895BF
:1056E00010920A0108950F931F93873208F04DC05E
:1056F0008E3108F093C0803109F47DC008F5873001
:1057000009F46BC068F4863009F0A3C08091C80426
:10571000817F8E7F8093C80481E08093D5049AC0F6
:105720008B3009F48FC08E3009F093C08091C8048B
:1057300082FB222720F991E0922790FB82F964C036
:10574000863109F47FC088F4813109F082C00E945B
:10575000DC1F8091690687FB222720F991E09227C0
:1057600090FB87F9809369066DC0893109F46AC09E
:105770008B3109F06EC08091C80481FB222720F98B
:1057800091E0922790FB81F93FC0883309F45AC019
:1057900050F4893209F458C0853309F455C0873272
:1057A00009F452C056C0833409F44EC028F48A3339
:1057B00008F44FC0895333C0883409F04AC00E94AE
:1057C000DC1F0FEF13ED20E3015010402040E1F704
:1057D00000C000000E94412835C08091C804982F65
:1057E0009095917090FB80F98093C80491112AC024
:1057F000897F877F10C08091C80483FB222720F90E
:1058000091E0922790FB83F98093C8049923D1F00B
:105810008091C80481608093C80414C08D5141E018
:1058200050E060E070E08A019B0104C0000F111F8E
:10583000221F331F8A95D2F7C901B8010E94B423F1
:105840000E94DC1F81E006C061E070E080E090E033
:10585000F5CF80E01F910F91089580E0089580E0DA
:1058600008958E518A3030F4E82FF0E0E65BFC4F6B
:105870008081089580E00895CF93C82F8091D5044A
:10588000813079F018F08230E9F185C0E0910801AB
:10589000F09109018081813169F0823209F07DC087
:1058A00009C0E0910801F09109018081813111F076
:1058B000823261F48C2F0E942D2C811104C08C2F18
:1058C0000E94732B1DC081E090E01AC08C2F0E94B3
:1058D0002F2C811114C0C43179F048F4CB3079F009
:1058E000C03109F05EC082E08093D50408C0C9329F
:1058F00019F0C83321F055C01092D50452C081E090
:10590000817051C0C93279F108F5C43161F1A0F458
:10591000C73009F044C01092CC0484E180930E019A
:10592000C0930D018CE380930C0188E080930B0100
:1059300088E280930A0133C082EE8C0F863078F5BE
:105940008C2F0E94312C8093D40429C0CE34E9F0EE
:1059500020F4CB3421F56AE013C0C13579F0C235AB
:10596000F1F461E00DC08091D404882319F0109205
:10597000D40415C081E08093D50415C061E006C051
:105980008091D4040E94AD2A0AC06AE08091D404B8
:105990000E94232B04C01092D50480E004C081E053
:1059A00002C080E0ADCFCF9108958091F6040895B4
:1059B0000F931F93CF93DF9300D01F92CDB7DEB725
:1059C0008C010E944E2F823011F0843019F593E043
:1059D00099831B830A839093E9008FEF9091E800ED
:1059E000815095FD06C095ED9A95F1F70000811163
:1059F000F5CF8091E80085FF0DC040E050E063E006
:105A000070E0CE0101960E946B2F8091E8008E77A6
:105A10008093E8000F900F900F90DF91CF911F912E
:105A20000F910895CF93DF9300D01F92CDB7DEB7CB
:105A300020916F06243031F522E0298380589109A6
:105A40009B838A8383E08093E9008FEF9091E80045
:105A5000815095FD06C095ED9A95F1F700008111F2
:105A6000F5CF8091E80085FF0DC040E050E063E095
:105A700070E0CE0101960E946B2F8091E8008E7736
:105A80008093E8000F900F900F90DF91CF910895D1
:105A9000CF93DF93EC010E944E2F823011F08430BF
:105AA000F9F482E08093E9009FEF8091E800915043
:105AB00085FD06C085ED8A95F1F700009111F5CFBF
:105AC0008091E80085FF0CC040E050E065E070E0A8
:105AD000CE010E946B2F8091E8008E778093E800C2
